:10000000D8330020355B000069970000315B0000A9
:1000100000000000000000000000000000000000E0
:10002000000000000000000000000000315B000044
:100030000000000000000000315B0000315B0000A8
:10004000315B0000315B0000315B0000315B000080
:1000500019980000315B0000315B000049A50000E9
:10006000315B000005970000315B0000315B000050
:10007000315B0000315B0000315B0000315B000050
:10008000315B0000315B0000315B0000315B000040
:10009000315B0000315B0000315B0000315B000030
:1000A000315B0000315B0000315B0000315B000020
:1000B00000000000315B000010B5064C2378002BD7
:1000C00007D1054B002B02D0044800E000BF0123FC
:1000D000237010BD20010020000000005C01010021
:1000E000044B10B5002B03D00349044800E000BFC7
:1000F00010BDC04600000000240100205C0101008A
:1001000010B50D4A0B8801889B1889180C7A1A7A49
:10011000A24205D10933180009310EF087F910BD4C
:100120000120022A05D0022CF9D08242F7D10238F0
:10013000F5E74042F3E7C04640110020F0B51C252A
:10014000441E65431B4C651903242E7D2640012E59
:1001500021D10D34A4462C7DAC44E4061BD46C7D27
:10016000154FA400E459277D002F14D1A160E0733E
:1001700027820A2B10D1A9682869814213D9091A4C
:100180008A4200D90A00802149028A420ED3012204
:100190005242A2812375F0BD614608794021014396
:1001A00060460171EFE7A7813300F3E7A281002ADF
:1001B000F0D1F9E7C007002040F1000010B50A2394
:1001C000FFF7BCFF10BD000001380B2809D81C2325
:1001D00043430448C018037D5B06DA0F002B00DBA5
:1001E00002757047C007002010B58C00830700D44B
:1001F0004C000C4BE4051B780B495B02E40D1B190A
:100200005B18C10706D51A800122084B00201B6825
:100210001A7110BD120110091A68120F1207024359
:100220001A60F1E73C110020180900203811002065
:10023000030040210A4A807D127840015202801852
:10024000084A80181A7D8A431A751B681B011A090F
:10025000428301221B0D8382034B1B681A71704776
:100260003C11002018090020381100200C4A30B53C
:10027000002314001568A9420CD15579854209D193
:10028000084A58021370DA00A418074B074AC0182E
:10029000146030BD01330832042BEBD10020F8E7A5
:1002A000181100203C1100201809002038110020EE
:1002B00070B5C9B20B4CCD0063191B79002B06D168
:1002C0000023012064192371A371404270BD0368AB
:1002D0004A020549DE68521801232959B04700280F
:1002E000F4DBEDE71811002018090020F8B5030031
:1002F00004243C331F780F4B19780F4B0131013C1C
:10030000032900D90021CA009E183579002D02D09A
:100310007679BE42F2D19E18B679002E01D0002C1B
:10032000ECDA9B18034C054A21701360FFF7C0FFFD
:10033000F8BDC0463C1100201811002038110020E3
:1003400070B506003C36040030780D00FFF78EFFD4
:1003500000280ED12000FFF7C9FF431C08D1064B2F
:1003600032781B681D605A714023627D13436375A8
:1003700070BD01204042FBE738110020F8B5494B21
:1003800005001C78484B6402E418FF235B00E25A26
:10039000464B9A4210D18022237BE17A1B02444EC5
:1003A00092000B4393420AD02B00002231331A7083
:1003B00033681B68934260D00B2040424AE02B0018
:1003C000607B2C3318700BF073FD2B002D331870ED
:1003D00023691A028023120C5B019A42E4D22B009B
:1003E00012112F331A70217C013B1970E38A002B04
:1003F00000D1636A2B624B4331689A180968E3891C
:100400005918A961511869629918237DE77C1B026C
:100410003B4300D1236A274A5B1A034193421ADC0B
:10042000254A9342C0DD802021002A8E4000520AD6
:100430005202024324312A860133EB610223AB626C
:100440008B7C462BB0D1CB7C412BADD10B7D0020DA
:10045000542BA9D1F8BD290002223131087802437A
:100460000A70E26AFF2A9FD8218D00299CD12800BA
:100470002100303040310270DEE72300FF34BF330B
:10048000FF33FF341A79002A07D059891A890904E1
:1004900028001143FFF754FFDCE71033A342F1D1EA
:1004A0008AE7C0463C1100201809002055AA000028
:1004B00038110020F4FF0000F40F00001C23013865
:1004C0004343094810B5C018037D9B070BD0437DFB
:1004D000064A9B009C5881692000FFF731FF431CAE
:1004E00001D11623237510BDC007002040F1000084
:1004F00030B504001800591A88420FD0002807DDD3
:100500001378013223701B0A637001380234F3E759
:1005100003005D1EAB415B429BB2F3E730BD0300BD
:100520001A002D321278881E9040596A4018704780
:1005300003003133020018788B00800700D44B0091
:10054000580A9369C018704710B50400FFF7F0FF10
:1005500001002000FFF7F4FE431C06D13F22637D1B
:1005600093431A0001231343637510BD10B5816ACC
:100570000400FFF7E9FF431C06D13F22637D93434C
:100580001A0002231343637510BDF8B504250B0050
:100590000A69097D8468294202D0A943013A197584
:1005A00005002D352D78610AE940520A0F00EA4016
:1005B000914207D21A6808215A6000221D7D1A61F3
:1005C0008D431D75BA4203D11C6100231800F8BD8C
:1005D0005D68D9792D010909BE1A2D09B14208D3E8
:1005E000C91B7619521836011207360932435A6070
:1005F000EAE702002C3214786402A2B24C1C544385
:100600001A694919A4180422640A64021C611C7D39
:10061000596022431A7500231207D7D4FFF794FFBD
:100620000300D3E70300313310B5040018788A00C3
:10063000830700D44A00124BD2051B7811495B0294
:10064000D20D9B185B18C2070CD518889A1C0E4B4C
:1006500098420DD90D484A40D20510D18023DB05C0
:1006600018430CE01A0001CA030118099033F2D8AC
:10067000E369984201D80128EDD11520404210BD10
:100680003C11002018090020F7FF0000FFFFFF0FBA
:10069000F7B50D0000244B6801901E0136093100AA
:1006A0000198FFF7BFFF030EDAB21B060DD400015D
:1006B000070900282ED0194B9F420DD908232A7D07
:1006C00013432B75002C23D100200F22EB7924013A
:1006D00013401C43EC71FEBD002C13D104212B7D73
:1006E0006F608B432B75013440231A4210D13900BF
:1006F0000198FFF71DFF0A4B1B681B68984207D142
:100700003E00CCE70136B74202D10134102CEBD1C8
:10071000013CD9E715204042DDE7C046F7FFFF0F57
:100720003811002070B505001800934217DC1A003C
:10073000AC18AC4216D00A782B781600613E023114
:10074000192E01D8203AD2B21E00613E192E01D8CE
:10075000203BDBB201359A42EBD0002008E00120BB
:100760004042E5E7431C03D10878434258414042E8
:1007700070BD70B505008C18013C2078202805D18B
:10078000501E012A00D170BD0200F5E70020824210
:10079000F9D00C5C002B05D02600413E192E01D863
:1007A0002034E4B22C540130F1E7010003000020B2
:1007B00010B50B311A78C401400810180019013324
:1007C000C0B28B42F6D110BDF7B50B7807000E0012
:1007D0000192E52B00D126E1002B0CD1037C7F2B6D
:1007E00004D8837D002B04D1FF33BB750F2040421A
:1007F000C5E00133F9E7CA7A3F210A400F2A00D049
:100800008DE01D0001318D43023A013D5543427B8D
:10081000521B00920B4251D0019B002B44D000236D
:100820004373737BFB74BB68711C5C19019B002BC9
:1008300056D03A7B0023AA4200DD531B00220878E1
:10084000002825D0002B02D02070013B013401325A
:100850000231052AF3D11A20310084460E31B44406
:100860000878002814D0002B02D02070013B0134FE
:100870000231501C8C452AD1317F00292ED0002B0B
:1008800002D02170013B0134B17F002921D1023215
:100890007B7B9A187A73002D00D1FF3530784006A3
:1008A000C00F0230BD746AE0009B002B02D1022011
:1008B0000025F7E7009B0D2BB3DDF8E7C27C737BC7
:1008C0009A42F4D1837C0D3BAB42F0D1ABE70200FE
:1008D000C6E7002B00D021700332D9E70200D7E72A
:1008E00005232000009AFFF71DFF002814DD3100CA
:1008F000009B24181B1A009320000623009A0E3137
:10090000FFF710FF002807DD3100009B1C311A1A89
:1009100002232018FFF706FF0028BCD1C7E7837C1D
:10092000FF2B22D0019B0822BC68002B35D0337BE3
:10093000310013402000FFF71CFF2E2322181370F4
:10094000541C31001022337B050013402000083175
:100950000D3AFFF70EFF031E00D1013B00200135C9
:100960005AB2ED18A0547D7309E03000FFF71DFF67
:10097000FB7C8342D6D1019B002B01D10020FEBD20
:10098000797B3B7B0020BA68994201D85054F6E746
:10099000D0543B7B0C2BF1D8C4E708239C46300095
:1009A000797BB444037800932023002908D023786E
:1009B0001D00613D192D17D8203BDBB201390134F0
:1009C000009DAB422BD1013A0130002AEAD1844587
:1009D00017D1002906D023782E2B14D101390134E8
:1009E0000332DFE70322DDE72E2BE7D1082AE5D02B
:1009F0000E3B072AE4D1631E1B782E2BDED020236A
:100A0000DEE70029BAD03000FFF7CFFEFB7D83423E
:100A100000D04CE740233A7C13433B7447E7042A59
:100A200000DD44E7EFE7012042E708220B7D70B5C7
:100A3000934304000D000B759B0610D503002F3364
:100A40001978436A591A7F200023227CA37402403C
:100A5000A37522742000EB82FFF772FC70BD096859
:100A60006960002903D0FFF75AFD0100EBE715206C
:100A70004042F3E770B50600087DCC7D83060D008B
:100A80000134DA0F002B0BDA33002F331978A1422F
:100A900029DD736A591A30006118FFF751FC11E023
:100AA0004B68190133002C331B780909A34215DC6C
:100AB000EB791B090AD10007C40F002813DB3000B3
:100AC000FFF742FD0023EC75AB7570BD14000131DA
:100AD000013B08011B07000903436B603000FFF76F
:100AE0001EFD0100D7E70F204042EEE7010030B5C0
:100AF0008B68007B00281AD01C785C2C01D02F2C2E
:100B000004D101330138F5E71000F3E702008B60F0
:100B1000013A002A05D05D7801335C2D01D02F2DDC
:100B2000F6D10A73801A012801D12E2CECD030BDE9
:100B3000F0B50D0085B00392437B876800910B22CE
:100B40002021280002930DF0D6FA3B78202B03D108
:100B50001420404205B0F0BDE52B00D189E000240F
:100B60007A1C2E2B09D1029B013B0293002B00D152
:100B700090E07B7801241700F2E708223B00019205
:100B80001E7801372E2E45D1019A009B94462A00EB
:100B9000634408320092934234D920232B726B7243
:100BA000AB721F3B1C4306239C43033B0193029BF8
:100BB000013B0293002B23D1630703D5A3075DD527
:100BC00020231C43012326001E401C4212D0039BFD
:100BD000A91D092B04D9039B291D632B00D8691D6E
:100BE0007E230B702C7A0A22039801310DF04AFA09
:100BF0002C7234001823212023402B732040A9E7B6
:100C00003B00BDE76307CED5A30701D52023C9E785
:100C10000823C7E71F2E9BD9202E02D101231C4396
:100C2000C5E73300613B192B0FD80423203EF6B2F1
:100C30001C43019B002BF1D0009B1E70019B013BCC
:100C40000193009B01330093B1E73300413B192B23
:100C500001D80223ECE731000F480DF001FC002819
:100C6000E7D00E4B984200D372E701235F261C4366
:100C7000DFE70823052600240193DDE7019A009BA6
:100C800094462A0063440832934201D9102398E71E
:100C9000082396E740205DE799E60000A3E6000000
:100CA0007FB50D00694604001600FFF741FF0028DC
:100CB00010DB09D1A8746846FFF777FD2900E075BD
:100CC0002000FFF7B2FE05E0AE74012EF3DD012334
:100CD0001840F0D104B070BDF0B585B002930B7D23
:100CE00005000C0017009B063DD503002F33187834
:100CF0006B6A181A2B00E67D3C33361831001878E1
:100D0000FFF7B4FA3100002800D1DEE0884B1A78F2
:100D1000884B5202D719FF1839002800029AFFF7B2
:100D200053FD0190002878DB2E7C002800D0D6E00F
:100D30000E22FB7A134201D0B20607D5029A002A8E
:100D400029D01022134214D0164218D1A37D203787
:100D50000133A375774B7B40DB05DDD121002800F3
:100D6000FFF788FE58E04B6819010909FFF7D7FB28
:100D7000C0E708221342E7D018231E42E6D11C2305
:100D80006A7C013A5A436C4B9B1862685A60A27D98
:100D90009A75E27DDA75694B1F607A8B217DA2809E
:100DA0002280BB8A0391E3806380134359425941F7
:100DB000CA0089000A433C2103988843102102435A
:100DC0002275F87A084233D00A432275002B10D1DD
:100DD0002A0029002B00312031323C311278097869
:100DE00030331B7820756175920702D5236011237B
:100DF0002375029B002B13D1AA686B7B2800D318A4
:100E0000AB60FFF773FEC0B26873002808D0012200
:100E100021002800FFF744FF0190019805B0F0BDC4
:100E2000F3060BD507233340032B14D1112306E01F
:100E30000823184206D010331E42F3D00F235B4222
:100E40000193EAE7029A002A02D12A7B002AF5D10F
:100E50001E42E7D1F2E7042332001A401E4238D086
:100E6000227D03999306DB0F890600D50123032118
:100E70005B010B4320318A4313432375AB7CFF2B6B
:100E800003D1A2686260228AE2823A8B6282FA8A85
:100E90002282FF2B1ED10722FB69A3602B7C13400B
:100EA000012BBAD121680029B7D0227D13332B75CD
:100EB00038339A431343237500232800236063606B
:100EC000A360A960FFF734FB01002800FFF738FAA0
:100ED000A2E722611A4B1B681B68A361DBE70423AE
:100EE0000421AA7D33400E420ED0019B032B00D07B
:100EF0002CE76368A360E38A2382114B1B681B689D
:100F0000A361531CAB7521E771B2002900DA1DE71C
:100F100001990129F6D1002AEBD00D235343697BB7
:100F20008B42EEDB80235B4233432B74E9E7C04600
:100F30003C11002018090020C007002010090020E3
:100F4000381100208B7D10B55A01102B02D1FFF70C
:100F500091FD10BD0123FFF7BFFEFAE770B58A7C53
:100F600004000D00002A0CD04021037C0B4213D159
:100F7000607B0D210C300AF0CFFD402382B2134379
:100F8000A374237D02332375A37D002B0FD12B7D0A
:100F90009B0634D5122037E0FF2A34D08B430374EC
:100FA00029000132FFF77CFE0028E1DA70BDFF2B3B
:100FB0001DD1164B1B681B68AB6101239A4211DBE4
:100FC000287DE97D800617D520002F300078411A52
:100FD000022907DCA87D1B1A0F33022900D1103328
:100FE0009A42D4DA2000A969FFF7AAF9DEE7A968D6
:100FF0006960298AE982E1E720002C30E6E72000D9
:10100000FFF7B4FAD2E714204042CFE738110020AE
:10101000F7B58B7D04000E0001935A01102B06D109
:1010200031002000FFF726FD00900098FEBD724BB6
:10103000877C1D78714B6D02AD18ED182B78E52B70
:1010400002D0002B00D0D1E001226D4B1B681A7139
:10105000002F32D00F23EB7200232F702B736B8382
:10106000E37D05216B7340239F43013F333B7B436B
:10107000A268681CD2180092627BD31A009AFFF70C
:1010800037FA03002800009A062105320E30FFF7D8
:101090002FFA03002800009A02210B321C30FFF7C0
:1010A00027FA019B203501330193544B6B40DB053C
:1010B000C4D1019BA774B375B2E7B27C29002000AC
:1010C000FFF736FD402302001A400092184200D07C
:1010D00090E02800203B1322EB7239000D300DF018
:1010E0000AF806F09FF9E88200142883327D3B005D
:1010F000920606D42200303233681278934200D12F
:101100003B001C2700213A00636030000CF0F3FF25
:1011100023000F223C331B7820007375019BB375AD
:10112000374B1B681B68B361337D93431A000D2353
:1011300013433375A268637BD318A360FFF7D6FC13
:10114000C0B2237D607300280BD0023B23751023AF
:10115000327D2000134333753023EB72FFF706FA1C
:1011600062E7062B3CD13075667C264B711E4F43DF
:10117000D8194388AB82234BFB5A87696B838368FA
:101180003A00EB61438A2B83038AEB82FF231A40E8
:101190009446626A007D13406246D31A820619D5CE
:1011A00020002F300078C3181C204143154A5218E4
:1011B000D375137DDB0601D53023EB720122104B72
:1011C00039001B6820001A710823E6732375FFF7A6
:1011D000B7F829E720002C30007801380340E3E716
:1011E000237CDB0600D420E70223AFE716235B4213
:1011F00000931AE71423FAE73C1100201809002095
:1012000038110020C0070020F0B5037D040085B030
:10121000012B52D903681B6998470700431C4CD027
:10122000607D402302001A40002F03DA002A14D107
:10123000278257E2002A19D09843C94B60751A7863
:10124000C84B5202D218C84B20001968236809689D
:101250009D680123A847071E2FDA7F22637D9343F1
:101260006375C14B803A1B681A60E1E71C25E37B7C
:10127000BE4E013B01936B438006800E9B190138E3
:101280000293042816D80AF03DFC05000B009B00D1
:10129000AE003A0120000299FFF7FAF9070009E0D1
:1012A000A76A39002000FFF7BDF9030EDAB21B066A
:1012B00005D507007B1C00D009E105B0F0BD050194
:1012C00065D12300313339001878A94AFEF78CFF25
:1012D0001C210C20019B59437218137D8343137505
:1012E0007358002B44D1107D403303431375DB0644
:1012F00077505760DF0F002B1ADA3F22637DA16A17
:1013000093431A0004231343637523002C331D7881
:101310002000013DEDB2A573FFF701F91C23019AEE
:101320002D185343F6182000B560FEF7DFFFB5E730
:101330003F22637D93436375227D901E1528BCD8A0
:101340000AF0E0FBEA00EE00EE0009010901A80244
:10135000A8021A011A011A011C02350208030C0323
:10136000600260024B023A02EB02EB021D038002B4
:101370005168200009010909FFF7E6F83F22637D63
:10138000070093431A0003231343637592E7E3694D
:101390000137BB420ED122000423313211781942A9
:1013A00000D0FEE20B4313700223A3622000FFF77C
:1013B000DDF873E74023A7621A4200D171E7F5E731
:1013C000019BA26A5D4375196B68190123003133D3
:1013D00018780909FEF708FF2B7D0700DB068CD47F
:1013E000A36A6B6066E7019B5D43A37B751903935A
:1013F00023002C331B78039A013BDBB2AD689A4281
:1014000009D18022564B00211878564B4002C01853
:1014100092000CF070FE2200534B3C321B68127895
:101420001D605A7101221A71039B002B57D11C2594
:101430003F21019B4D4E5D43039A73199A60627D73
:101440008A4362751A7D52063ED5454B1F78454B3F
:101450007F02FF1805F0E6FF2E23AD590A22202156
:1014600003903B70781C0CF046FE2B0CBB82039B58
:1014700038001E14FB821023FB727D8365680A22EC
:1014800020213E8321300CF036FE2B0CBB863B0026
:10149000102203992B337D87F9863E871A70354BCE
:1014A0003B84237D022B05D03F23627D9A433A3B48
:1014B000134363751C22019B5A432C4B9B1820003D
:1014C0009969FEF73DFFE9E6A27D002AF7D13F22A8
:1014D000637D93436375002F00DB2DE7A8E6204B67
:1014E00020001978FEF7E4FE1C23019A013D5343C6
:1014F000F618039BB560013B0700A373DAE6029878
:10150000FEF796FE3F22637D2000934302996375A8
:101510003E3AFFF7C5FBC1E60298FEF789FE87E673
:10152000002320001A000299FFF7D6FB0700431C96
:1015300000D1C2E603000F3300D079E6237C5A07BE
:1015400000D175E65B0700D572E620000299FFF72F
:1015500005FD0700EAE020000299FFF759FDF8E7D2
:101560003C1100201809002038110020C00700207D
:10157000FFFFFF0F2E2E00001C2301994B43BE4995
:10158000CB18197D490722D421002C3109781B6919
:1015900001395B0A19400291092A3ED10A238026AB
:1015A0002375B600A3689B19A360A3899B1BA38125
:1015B00066E00A2A04D1320029000CF080FDF1E730
:1015C00001221B6801001A7128003200F5E71C2374
:1015D000019A5343A84AD3181A7D120707D5237DD1
:1015E0000A2B00D17EE02000FEF7C0FFB1E720000B
:1015F0005968FEF7A9FFACE70F26013D2D013240E7
:101600002A43DA715E680291320110321509320FF5
:1016100012072A435A60002864D01C27019B20002F
:101620005F43954BDF197B6819010909FEF777FFC6
:10163000029BC6183B693100DD0523003C33187856
:10164000ED0D0393FEF712FE002851D08023A689EA
:101650009B005B1B9E4200D91E00884B227D1878A0
:10166000874B4002451987482D18A0680028A0D153
:101670008549A0810D600B2A02D11B680A3A1A71B4
:10168000238A019A9B1923821C2353437A4AD31835
:101690001A69B6181E61227DF105C90D0B2A03D106
:1016A0009A68964200D99E60754BA0891B680029F4
:1016B0001BD19971029B0133029323002C331B78B9
:1016C000029A9342A7D81C23019A53436A4AD3181B
:1016D000DA79150990D1002800D078E70422197D25
:1016E0000A431A7501232375E7E5E27B9A7192E7B5
:1016F000002D3ED18025A389AD00AB4224D3A26842
:10170000002A25D0217D23680B2913D120001B69D5
:101710009847071E0ADB23683100DF682000012399
:10172000A268B8472E00071E00DB3BE77B1C00D0F9
:101730007EE5C2E509219D68217501233100200065
:10174000A847071EF2DBB8E53A69BB689A4210D396
:10175000237D0B2B0DD12000FEF7C8FD0700431C95
:1017600000D065E5464B039A1B6812781E605A71DB
:10177000A3E531002000FEF7E3FDEAE62000029930
:10178000FFF7E0FB071E0FDA431C00D195E51C2292
:10179000019B5A43384B9B1800221A7503000F33E4
:1017A00000D045E522829DE7637B23829AE72000F3
:1017B0000299FEF7EAFECCE6210000232E4A3C31D6
:1017C000107D0133400603D5557D0878854214D03D
:1017D0001C320C2BF4D112232375220000212B4B39
:1017E0003C321879002803D015785879854225D0E5
:1017F000013108330429F4D11AE5E3731123916907
:101800002375B7E70298FEF713FD050005F00AFE01
:101810001C22019BE8825A43174B001428839B1813
:101820009B68EB61237D112B00D101E51C22019BFC
:101830005A43114B9B1800221A75CCE72000FEF783
:1018400037FD86E60D4B0F4A1B785B029B18198CFF
:101850000F4A914200D0A7E062685D8F91B2100CF0
:101860008D4202D19D8E8542E0D001225987988613
:10187000034B1B681A71D9E7C00700203C110020F8
:10188000381100201809002010090020181100202C
:101890002E2E00001C230125E5260199434A4B43C7
:1018A0004349D3189B7D09785B0149025B18414984
:1018B000414809681B180D713E35D97A1E702940C0
:1018C0000F2909D1203319004140C905F5D1200065
:1018D0000299FFF7CFF83CE6217D1C2308290DD1A2
:1018E00001994B43D118097DC9069FD517212000C6
:1018F0002175D158FEF713FE01003BE701994B43D8
:10190000D3581B011D09002B90D0152323752900E6
:101910002000A560FEF70CFEEEE7A668200031006F
:10192000FEF780FE002801DA0700FFE603011D092B
:10193000002B04D1237D152B00D079E476E723001A
:101940003133187800223100FEF74EFC1B4B9D42CC
:10195000F0D8DCE70F23002123750BE72000FEF70A
:101960000DFD071E00D0E1E6154B1B68002B00D1D2
:101970005EE422003C3201211078984758E41C2292
:10198000019B5A43094B9B18094A9B7D12785B01C6
:1019900052029B18084A9B18DA8A22811B8B6381AA
:1019A00046E413277F4243E41527FBE7C0070020E6
:1019B0003C1100203811002018090020F7FFFF0F0C
:1019C0001409002070B504000A4DA4002868FFF730
:1019D0001BFC6868FFF718FC63591A7D101E05D0C0
:1019E000012A04D100221A751020185E70BD012052
:1019F0004042FBE740F10000020010B5002822D071
:101A00001C21431E5943124B5918087D4006C30F31
:101A100000280EDA4B7D0F489B001858037D002BE1
:101A200013D1038210338969C2730375FEF788FCF2
:101A300010BD180008498C79A24200D18871013389
:101A40000831042BF7D10020F2E701204042EFE7F4
:101A5000C007002040F100001811002010B5441EFE
:101A60000B2C09D8FFF7C8FF002805DB1C23002238
:101A70005C43024B1B191A7510BDC046C0070020FD
:101A800070B504001C23651E6B4308001649CB1873
:101A90001E7DB60725D01E7DF60622D4002A08D06A
:101AA000022A18D19B68002802DA42429A4216D8CC
:101AB000C0181C236B43CB185A7D0C499200525816
:101AC000117D00290DD19B6898420AD80D23D4734B
:101AD0001375906070BD012A03D11B69E3E70020F4
:101AE000E7E701204042F5E7C007002040F1000091
:101AF00070B504001000627500221D00FFF7C0FFE2
:101B0000002802DA2368984770BD2575FCE70000BD
:101B10001C23013843430648C018037D9B0704D0AB
:101B2000037DDB0601D48068704701204042FBE75B
:101B3000C00700201D4A70B5012114000325137D44
:101B40002B4206D001311C320D29F8D10D20404224
:101B500011E0002810DD1C230138584323181E7D96
:101B60002E4220D03500ED061DD516752058106088
:101B70005B7D5375080070BD431C14DB43420C4869
:101B80009B001B5831251C00180031343C3324784D
:101B90001B783030007815755375A307EAD51123EB
:101BA00010601375E6E70E20D1E7C046C00700209D
:101BB00040F10000F0B5050085B008001F0001925B
:101BC000FFF7B8FF061E5ADB7B1C03D128000CF080
:101BD00055FC0700731E0393012F53DD6B783A2BDE
:101BE00050D12A781300413B192B00D9203B012BFF
:101BF0006AD83A4A9B009C581C22230030331B7839
:101C000031219C46230031331B78023F029323008D
:101C10003C331878731E5A43314B0235D31819756B
:101C200002995875890706D561462D481150202123
:101C30001A7D8A431A75237D0293002B47D1230016
:101C4000032231331B78134243D0019B20002773BA
:101C5000A560E6732374FEF749FFC0B260730028E5
:101C60001AD104230199019A19401A4233D107224B
:101C7000019B1340032B2ED00123218223753000BA
:101C800005B0F0BD1C22731E5A43154B9B185B7D9B
:101C9000124A9B009C58CEE703231C212375731E18
:101CA00059430F4B0122C9182000FEF7F9FF431CCE
:101CB000E5D0029B23751C22039B06005A43084B68
:101CC0009B1800221A75DAE70C204042F3E7012046
:101CD000FBE70320F9E71420F7E7C04640F10000D6
:101CE000C007002010B50C00FFF724FF00280CDB14
:101CF0001C230721421E5343044A9B181A7D9C74DF
:101D00008A43110006220A431A7510BDC00700203D
:101D1000F0B585B0009003910192002844D01C26B4
:101D20000322441E7443244B1C19237D1340022BB1
:101D30003AD1019B0C2B3ADD637D204A9B009F58D2
:101D40003B7D0293002B34D1FFF7F4FE051E25DB0B
:101D5000431E5E43184B9E1963687360A37DB37581
:101D6000E27DF275019A217D013A3A73039AF87384
:101D7000BA60009A7A74A27C3A740C223A75083AD6
:101D800011420ED00B009343237531003800FEF74B
:101D90004CFE431C02D00500029B3375280005B0A1
:101DA000F0BD0133B375F9E70E256D42F6E7102556
:101DB000FBE70125F9E7C046C007002040F100001D
:101DC0000B4B0C4A10B5DA824022C0B218749A76D6
:101DD000C04609489A75C02458838020C9B29876B5
:101DE000DC7519749A76C0469A75D87610BDC046CF
:101DF0008000006080C0FFFF8080FFFF0D4B0E4A17
:101E0000C0B2DA82402218749A76C0460B499A759D
:101E1000812059830021C00119808031D9755883F0
:101E20009A76FFE7581CC07F9A75413AC0B2D976BE
:101E30001A8070478000006080C0FFFF8080FFFF35
:101E40008022C021054BC0B29A76D97580391874AA
:101E50009976C0469975DA767047C0468000006072
:101E600010B540228024094B002119800849DA76F8
:101E7000D9829A76FFE7012006494042C97F9A75C8
:101E8000DC7618800907EFD410BDC04680000060E2
:101E90008080FFFF8100006010B5812410210C209C
:101EA000FFF78EFF094A0A4B1278E40100211980DE
:101EB0004031DA755C839976FFE70648C07F9975F3
:101EC0004139DA761980C106F0D510BD60E6000010
:101ED000800000608100006070B50D000400FFF715
:101EE0006FFF290A601CFFF76BFF70BD70B5436878
:101EF00004001D7A5A7A4D1BEDB2AA422CD3997A6E
:101F000099206943FFF7E8FF61680B7A5B19202B82
:101F100004D123002C331E78002E01D14919CE7A2A
:101F2000A268138892889B18228D9B1A002B13DDC0
:101F30009E4200DDDEB23100B120FFF7CDFFAD20C3
:101F4000218DFFF7C9FF238D10219E199020268532
:101F5000FFF736FFFFF784FF70BD70B50D0004007A
:101F6000FFF7BAFF290CA01CFFF7B6FF70BD70B5D4
:101F700015000400FFF7B0FF2900A01CFFF7ACFF1D
:101F800070BD70B50D000400090CFFF719FF290A98
:101F9000601CFFF715FF2900A01CFFF711FF70BDA3
:101FA000F7B50C00402580270D4B01920D4EDE82C7
:101FB000E6B21E749D76C046C0220B4E9D755E83B0
:101FC000461A365D9F76DA751E749D76C046019A74
:101FD000013456189D75361BDF76002EE6DCF7BD02
:101FE0008000006080C0FFFF8080FFFFF7B51C000D
:101FF0000500631E9C4110262F0064012643BB2070
:10200000009101210192FFF7DBFE3100B920FFF7BB
:10201000D7FE0621B820FFF7D3FE2100B920FFF735
:10202000CFFE0421BA20FFF7CBFE3100B920FFF725
:10203000C7FE0221B820FFF7C3FE280CFFF700FF00
:10204000280AFFF7FDFE2800FFF7FAFE009E019B1D
:10205000B8205B1BD95D013EFFF7B2FE0137002EB1
:1020600002DDFF231F42F2D10425BA20FFF7C6FE8E
:102070002842FAD02100B920FFF7A2FE009B981B4E
:10208000FEBDF7B51400802205001202914203DB69
:1020900052274304019206D0802220272B051B0DD6
:1020A0005201D31A0193631E9C4110266401012141
:1020B000BB202643FFF784FE3100B920FFF780FEE6
:1020C0000621B820FFF77CFE2100B920FFF778FE3B
:1020D0000421BA20FFF774FE3100B920FFF770FE2B
:1020E0003900B820FFF76CFE290CB820FFF768FE16
:1020F000290AB820FFF764FE2900B820FFF760FE28
:102100000425BA20FFF77AFE2842FAD02100B92030
:10211000FFF756FE0198FEBD10B50622A721040068
:10212000FFF73EFF9220FFF769FE03239843A37B4E
:102130001843C0B2FFF784FE10BD10B506220C0094
:102140009321FFF72DFF9220FFF758FE9F21640196
:1021500008402043FFF774FE10BD70B51E00050057
:102160000C0010009179FFF7E8FF3100049A9920E4
:10217000FFF7FDFE2800FFF7CFFF08222000AD216A
:10218000FFF70EFFC2219120FFF71AFE10219020C9
:10219000FFF716FEFFF764FE70BD70B515000C006A
:1021A000FFF7BAFF2900D220FFF7EBFE0C219120A8
:1021B000FFF706FE08222000AD21FFF7F1FE1021F7
:1021C0009020FFF7FDFDFFF74BFE70BD70B543603B
:1021D000049B0400C360059B1500016082600361DD
:1021E0001422002114300BF086FF0222064BE4611A
:1021F0006361631DDA772B88200023856B886385F4
:102200000023A38570BDC046ED1E000083681A88B8
:1022100002855B884385704710B50A2902D1FFF714
:10222000F5FF10BDFFF762FEFBE710B50400006884
:10223000FFF772FFAF20618DFFF74EFE012160684E
:10224000FFF77BFF00219B20FFF746FE6368B3206A
:10225000D988FFF741FED220E168FFF792FE230004
:102260002D331B78002B0BD0E1680F24C943D520F8
:10227000FFF787FEF02191202143FFF7A1FD10BD5C
:1022800021690E24F3E70EB477B5040007AD40CD05
:10229000FFF7CBFF20002A0031001430019508F031
:1022A0005FFB7EBC08BC03B0184770B505000C008E
:1022B000FFF7BBFF0134631E1978002903D0280003
:1022C000FFF714FEF6E770BD70B51D004360049B78
:1022D0000400C360059B1600016082600361142244
:1022E000002114300BF007FF02220A4BE461636106
:1022F000631DDA7733882000238573886385002384
:10230000A3852B7AED1A23003035EA7A2C331A7024
:1023100070BDC0461922000070B505001400838C02
:102320009B205943FFF7D8FDA98CAF206143FFF7ED
:10233000D3FD10219020FFF743FDFFF791FD70BD05
:10234000F7B504000F001E001D000192B919491BCA
:10235000002D0DDD019BA28CF3185B1B5343220063
:102360002387236820001B6836329847013DEDE73C
:10237000F7BD00000023F0B589B004000393994233
:1023800004DBC36903938B4200DD0391261D3000FB
:10239000A17CFFF7D2FE00219920FFF79DFD3000C0
:1023A000FFF7BAFE0021AD20FFF796FDA28CB12009
:1023B000618FFFF7DCFDC2219120FFF701FDA18CA9
:1023C000039809F033FC256A2A22A35EA84263DA47
:1023D000C71AFB43DB171F40EB1B05932822A35EA4
:1023E000059A9A4210DA5D1EAB1A0493049B002BE7
:1023F00009DB2A0019002000FFF78EFF049B013D36
:10240000013B0493F2E7059B002239002000FFF70F
:1024100097FF27620021236AA58C61815D43039B9E
:102420005D1B404BA5811B689E4258D12A00262087
:10243000FFF79DFD208A039B3E385843A361E36963
:10244000E1695B08C01809F067FBE38906AD343B1E
:10245000A7892B803223C719AB800A33EB806F80AA
:10246000FFF71AFD0023304A009329003000FFF7E0
:1024700074FE3022A35E9F420CD049DDFA1A3B2A3B
:1024800000DD3C22EA8029003000284A6B80FFF7FB
:1024900084FE278609B0F0BD421B59008A42B9DD8F
:1024A000C31A04935D1B2822A35E9D420BDA2F0002
:1024B0007A1B39002000FFF72FFF2822A35E013787
:1024C000BB42F5DC2B002822A15E0498CA1A4118F1
:1024D000C91A2000FFF734FF049B23629AE7144FC8
:1024E0003B689E4203D0134B1B689E42A2D1102032
:1024F000FFF784FC3B68EF22F31A591E8B41024020
:1025000018011043FFF79CFC2A00002134208FE7BC
:10251000DA1B3B2A00DD3C2292B23C33EA809B1A54
:10252000B1E7C046BC07002058EF00003130310051
:10253000B4070020AC070020F7B52D4E0500300091
:1025400001910BF09BFF002805D0421EB35C2F2B9E
:1025500001D05C2B45D12B006C6D60331880206B53
:1025600000930BF08BFFE0862000FFF74FFE216BFE
:102570002000FFF79AFE2068278DFFF7CDFDD220BF
:102580002169FFF7FEFC0C219120FFF719FCA368DD
:1025900039005A88AD20FFF7EAFCA368B120DA8839
:1025A00019889B88C918C91BFFF7E1FC10219020EE
:1025B000FFF706FCFFF754FC622169564B1C0FD055
:1025C000009B019812221B88002800D1023A30009B
:1025D0004942FFF7EFFA074B002804DA1B689847D7
:1025E000F7BD1000AFE70F2258751A75F8E7C0461F
:1025F0001C060020B02A0020012270B515008D4075
:102600000400633003782B43DBB225000370002005
:102610006235285601301FD11800084106001640C7
:10262000104208D1002B1DD03100134203D11341B9
:1026300002211A40891A0023EB568B420CD0E36D1D
:1026400029700021144A11708B4201D00220984752
:1026500000212000FFF770FFE36D002B01D0012067
:10266000984770BD0D49E284A1652E22A15E022229
:10267000511AA28C4A43002A0BDBE2618023DB055E
:1026800000212000A3612362FFF774FE012149426B
:10269000D1E7E361F2E7C0461C06002084E60000B3
:1026A00037B504000369082259438D0D4168684617
:1026B0000BF005FD237D2068002B19D06B46DB88CD
:1026C0001A00AB4200D92A009B1A95B26A466946A5
:1026D000D380E268FFF761FD6B466A465B88D58070
:1026E000EB185380A26869462068FFF756FD37BD96
:1026F0006B469B88AB4200D92B009DB26B46A2680B
:1027000069469D80FFF749FD6B466A461B88EB18BA
:10271000138063689B885D1B9580E268E3E7000097
:1027200070B519490B78012B16D0022B26D1002445
:10273000FDF74AFD154B05211C705E20FFF740FB9D
:1027400021005F20FFF709FC0420FFF757FB104B27
:102750001B68D8680DF0F4FC0E4B1A68002AE6D00E
:102760000223D5680B709168E0220B4C1204626062
:1027700002002000A560FFF7BBF970BDFDF724FD46
:10278000064808F06FF8F8E7090400200010004040
:102790001C04002014040020B02A002061E6000080
:1027A00073B5114E0400337883421BD00F4D104B8C
:1027B0002800AB60FFF72AFD2A69A9682868FFF79F
:1027C000ECFC2800FFF722FD3470023C63425C41C0
:1027D0000022084B00929B8B074A63430749084835
:1027E000FFF7BBFC73BDC0460A0400209003002025
:1027F00008F10000D0F00000D8ED0000E8F0000083
:10280000F42C0020F7B50F000500114C0193A060D7
:1028100020000092FFF7FAFC0E4E3A003100200033
:10282000FFF731FD2B0020000833A360FFF7EEFC1B
:102830003100009A2000FFF726FD10352000A5602A
:10284000FFF7E4FC31002000019AFFF71CFDF7BD03
:102850009003002081EB00008023F0B58BB0039241
:102860009B00994200D09EE0574B01684268994214
:1028700000D098E0554B9A4200D094E0036904934D
:10288000022B00D88FE0C268836806920022C3182A
:1028900002920699591805918021059C89004118DA
:1028A0008C4200D37FE01968494CA14252D0494C78
:1028B000A14209D0484CA14200D06CE059681F00E9
:1028C000089102210A430AE0D9680C00802189029C
:1028D0008C4268D859681D00079101210A43072AD4
:1028E00058D13E4B1B78022B40D13D4BE9681D600F
:1028F0003C4B1B78002B02D17A68012A30D9FA6848
:102900008918002B02D17368012B2BD9F368C918E1
:10291000354B1F60354B1E60354E327D7368002A83
:1029200022D0D8884B088005181809F0F5F8002740
:10293000304B3900306130001F60FFF7B1FEEB68AB
:102940002D48A968039A836015234760FFF7D0F8E4
:102950000BB0F0BD59681E00099104210A43BEE77F
:102960001F00D0E70026D3E79888DBE70398FDF740
:102970002BFC0220FFF714FF0023204A009320497C
:102980002048FFF7EAFB099B089A07991E48FFF7C2
:1029900039FFDDE7059B029901310291029C049900
:1029A000A14200D075E70398FDF70EFC0320FFF766
:1029B000F7FE164C164B2000A360FFF727FC200003
:1029C0001449FFF772FCC3E75061746572736F6E50
:1029D0005DF5B08E3064B4BC7447D73E0A04002065
:1029E0001C04002008040020180400201404002007
:1029F0007803002010040020B02A002038F10000E5
:102A000010F10000F42C002018F1000090030020C9
:102A100008F100006BE60000F7B5037D0400002B11
:102A200049D0437D002B13D01C22013B5A43BF4B9E
:102A30009B18587DFEF7C6FF0500431C3BD00028BD
:102A400008DA0023A382236898470023A38232E098
:102A5000807DEFE7207D01381528F6D809F052F87F
:102A600016001A002C003200A100A800B200C3001A
:102A7000DC00F30008010F01420147014C015B013A
:102A80007C01AA01EE01F601FE010702607DFFF75D
:102A90003FF8A0608022607DA5499200FDF78EFB83
:102AA000002380210122A374606803332375090287
:102AB000FFF7E7FAE081F7BD0023A5812382043305
:102AC0002375F8E7B920FFF799F90500102028438E
:102AD000C0B2FFF7B5F90521B820FFF771F9002161
:102AE000B820FFF76DF9B820FFF788F9B820FFF795
:102AF00085F9E9B20600B920FFF762F901231E4209
:102B0000D9D1A189002902D0A268002A05DC0023BE
:102B1000607DA382FFF704FECDE7E2896068002AAA
:102B200003D180211A000902C2E7A67C228A804DC7
:102B30007602B2185219FFF759FAA36882B21B1A2B
:102B4000A36063681B186360238AD3182382A38958
:102B50009B1AA381E3899B1AE381764B1B78002B98
:102B60000ED0754B1A6881188020744A196013685A
:102B70004001CB1A834203D971481160FFF790FDE1
:102B8000A389002B00D096E701218022A37C607DE1
:102B90005940A174490269189200FDF70FFB032305
:102BA0008EE70023A17D6748A382FFF725FD82E71A
:102BB0008022607D5E499200FDF700FB0023A38127
:102BC00007337DE7002D36D029005F4801F074FF00
:102BD00000282FDB0023A081281A554D636040197F
:102BE000A06008336CE7584D6168280001F0E4FEEE
:102BF000031E01D060605EE72800A289A16801F091
:102C000097FF051E17DB8022607D5049A581920049
:102C1000FDF7D4FA0A2353E7002D0CD0A2894A48C5
:102C2000002A03D04A492B00891AE8E713004049DB
:102C30002A00E4E70500607DFDF7C6FA2900424856
:102C400001F0C6FF01E7002DF5D0A3893F495A19CD
:102C5000C91A3D48002301F06BFF051EEBDB802203
:102C6000A0813349607D9200FDF7A8FA092327E788
:102C700001F0ECFF00236060A3600C3320E7638960
:102C800061682B4E072B08D1324D30004D1B2A00B6
:102C90000BF015FA00237119638122892A48531C0D
:102CA00023810D0001F0E0FF6389011E08D1590264
:102CB00071180B23607D6A1AFDF740FA0D23FFE6B9
:102CC0005A1C5202B2189042E7D380225902606027
:102CD0000B23607D71189200FDF730FA6389013390
:102CE0006381E8E6607DFEF7B9FE0E23E8E6002387
:102CF000A38201F0FFFFDEE61821607DFEF7F2FF00
:102D00000500607DFEF7AAFE00236381084B657510
:102D100063601023D4E680226168607D093152002F
:102D2000FEF7F6FF1123A075CAE6C046C0070020D3
:102D30004011002009040020100400200C04002091
:102D400078030020DC2A0020682C0020401300209B
:102D500040150020401F0020002D20D1607DFDF790
:102D600033FA6D4D61892E22AB5EAA8CCB1A0133EA
:102D70005343E984002B10DB6848EB614B00C01A19
:102D80000222674B0BF0F6F98023DB0500212800B7
:102D9000AB612B62FFF7EEFA57E60023ECE7A07D6C
:102DA0002581FEF7B5FE65682860A07DFDF786FBEE
:102DB000122385E61C26A27D5A48013A72438218E6
:102DC000527D5949920052586368926857495A6037
:102DD0006589524AED436D00AD18A27D591A013A3A
:102DE00056438019027D89B2D206D00F002A23DA19
:102DF0005A7A2E2A1ED19A7A002A10D05A892E2A5F
:102E000018D12C3A1A72032229806389023D0133BA
:102E1000638123890D3393436268D3186360A07D77
:102E2000FDF7D2F961686A1A0C3A0C2A96DD607DCA
:102E3000093175E70122E5E71872E4E78022607D39
:102E40003B499200FDF7BAF9142339E60023627D6D
:102E500029003748A382FFF7FFFC2CE616232375D1
:102E60008022607D31499200FDF7A8F923E6002D0C
:102E70000BD100230121627DA3822E4B19702E4BB2
:102E80001B68002B3CD1100044E65E206668FEF70C
:102E9000B5FF052101905E20FEF792FF31005F2013
:102EA000FFF75BF8254B264ADA8204221A743C327B
:102EB0009A76C046C02723499A75BC465983290093
:102EC0001A48802607889E766646DE751F829A76A7
:102ED000C046802602399A750230DE760029F0DC81
:102EE000FEF7BEFF6B465E201979FEF769FFA36807
:102EF00062685B1B5519A3606560002BB9DDAFE705
:102F0000DC689968802310481B02436002238460B8
:102F1000FEF7EEFDCFE5C046DC2A00204021002070
:102F200001010000C007002040F100004011002016
:102F300078010020090400201804002080000060AF
:102F400080C0FFFF8080FFFFB02A0020A14A01233C
:102F50001168F0B5080085B01840194209D1136016
:102F60009D4B009001939D4A9D4B9E499E48FFF7C3
:102F7000ABF901259D4B1A682A420DD11D609C4B6F
:102F80009C4C01939C4B200000939C4A9C4B954980
:102F90002D34FFF799F9257001229A4B19681142D7
:102FA0000AD11A608C230193974B984A0093984951
:102FB000934B9848FFF70AF90124974B1A6822426D
:102FC00000D11C60954B1A681100214022420FD19C
:102FD000934D1C60934E944B009101933200884BAB
:102FE00028008049FFF770F92B002D331C702E63E9
:102FF00001258E4B1A682A4210D11D60FF238C4C8C
:103000008C4E01937A4B3200009320007C4B8A490E
:10301000FFF75AF923002D331D7026630125874BD6
:103020001A682A4210D11D608C23854C854E01936D
:10303000754B320000932000714B8349FFF744F930
:1030400023002D331D702663804B01251A6816005E
:103050002E402A421AD11D60FF237D4C0193644B00
:1030600020007C4A74490093654BFFF7AFF87A4B18
:10307000221D23632B23A386A31CDE876D4B598C53
:10308000DB8CD187A21D0834D587E387734B0125DC
:103090001A681100294003912A421AD1FF27704C67
:1030A000704E1D60524B3200200000936E49544B0D
:1030B0000197FFF78BF86D4B039A2363A31CDA8704
:1030C0007288231DDA87A31DDD87F388A78608345D
:1030D000E3870122664B196811420AD11A60FF2367
:1030E0000193434B634A00935F49454B6248FFF7A6
:1030F000EBF8624A0123116808001840194209D10F
:1031000013603B4B009001935D4A5E4B5E495F4804
:10311000FFF75CF801255E4B1A682A420DD11D604D
:103120005C4B5D4C0193324B200000935B4A554B46
:103130002C492D34FFF7C8F82570594B01251A6822
:103140001100294003912A421AD1FF27554C564EAF
:103150001D60274B3200200000935449284B0197F3
:10316000FFF734F8414B039A2363A31CDA87728874
:10317000231DDA87A31DDD87F388A7860834E3873C
:1031800001224B4B196811420AD11A60FF230193A7
:10319000174B484A00934549194B4748FFF716F823
:1031A0000122464B1968114211D11A60444B3F4A23
:1031B0003D491A60FF2212029A600D4AC88FDA60F8
:1031C000404A5A608A8F8242924152421A7505B033
:1031D000F0BDC0467401002000FFFF00E8ED0000D4
:1031E00028F200007C2B00207C07002070010020CA
:1031F000FFFFFF004C0700208482840000EE0000E7
:1032000048F100006C010020D6D3D600B8ED0000D4
:10321000C82A00201C07002068010020640100204B
:10322000A805002088EE0000FFFFC6006001002016
:103230007405002070F00000402C00205C0100208C
:1032400040050020A0F00000542C00205801002070
:10325000F804002090F00000F00500205401002048
:10326000B004002020F000002C2C00201C060020C0
:103270005001002058F00000800400204C01002084
:1032800058ED000050F200009C2A0020500400205D
:10329000480100204A4D290020040020B0EE000023
:1032A00044010020C0030020D0F00000F42C0020D6
:1032B00040010020F0F00000900300203C010020BD
:1032C0007803002008F100007047002310B5D41ADD
:1032D000002C03DDCC58C4500433F8E710BD0300C4
:1032E0000A0070B5050051CA51C3143111CA11C387
:1032F00008000C000BF0C2F8421C2800210014301A
:10330000FFF7E3FF70BD000070B51600144A04001B
:1033100010609180D680134A10200D001370FEF7C4
:103320006DFD102398430300802040421843C0B233
:10333000FEF786FD290032002A20FEF718FE112034
:10334000FEF75CFDF322A37B10409B001843FEF7C1
:1033500077FD0E222E212000FEF722FE70BDC04612
:10336000B40700200527002070B51600124A04009B
:1033700010609180D680114A10200D001370FEF766
:103380003DFD50231843C0B2FEF75AFD320029001C
:103390002A20FEF7ECFD1120FEF730FD03239843B1
:1033A000A37B1843C0B2FEF74BFD0E222E21200056
:1033B000FEF7F6FD70BDC046AC07002004270020D4
:1033C00010B51020FEF71AFD40239843FEF738FD94
:1033D0000022014B1A6010BDAC07002010B50C0094
:1033E000FEF79AFE08222000AD21FEF7D9FDC2218A
:1033F0009120FEF7E5FC10219020FEF7E1FCFEF79E
:103400002FFD10BD70B516000D0004009321300093
:103410000A22FEF7C5FD9220FEF7F0FC9F22B37B47
:1034200010405B011843FEF70BFD29002000FFF759
:10343000D5FF70BD13B58C88634300240094FEF75C
:103440008CFE13BD30B542680300147A557A091B0F
:10345000C9B200208D4208D36418202C03D12C332C
:103460001878002801D15118C87A30BD10B5040071
:10347000026981680068FEF790FE2000FEF7C6FE34
:1034800010BD70B50400058D0068FEF745FE21698A
:10349000D220FEF776FD0C219120FEF791FCA36867
:1034A00029005A88AD20FEF762FDA368B120DA88B2
:1034B00019889B88C918491BFEF759FD10219020D7
:1034C000FEF77EFCFEF7CCFC70BD4368197A5A1AF1
:1034D0005B1A30322D33D27ADB7AD31A028D9B18E5
:1034E0000385704770B50400836015000E00FEF779
:1034F0008DFE2000FFF7BAFF002D08D002DA200071
:10350000FFF7E3FF2A0031002000FEF7BCFE70BD8C
:10351000F8B5040016001F00069B0D008360FEF73F
:1035200075FE2000FFF7A2FF0022002330003900C3
:1035300008F090FC002810D1002200233000390050
:1035400008F08EFC002802D02000FFF7BEFF3200FA
:103550003B0029002000FEF796FEF8BD70B50B7801
:1035600005000C002D2B01D1FFF7AFFF2800FEF75F
:103570005CFE0134631E1978002903D02800FEF791
:103580004BFEF6E770BD2E22835EC184C91A838C80
:1035900001315943002901DBC16170470023C36138
:1035A000FBE770B50D00046A2821435E1B19013B3F
:1035B000AB420DDB94420BDC2100AC4200DA290067
:1035C000934200DD13005B1A01330A1BFEF7B8FEBD
:1035D00070BD00000023F0B589B004000393994248
:1035E00004DBC36903938B4200DD0391261D300089
:1035F000A17CFEF7A2FD00219920FEF76DFC3000B2
:10360000FEF78AFD0021AD20FEF766FCA28CB120FA
:10361000618FFEF7ACFCC2219120FEF7D1FBA18C9B
:10362000039808F003FB256A2A22A35EA84263DA06
:10363000C71AFB43DB171F40EB1B05932822A35E31
:10364000059A9A4210DA5D1EAB1A0493049B002B74
:1036500009DB2A0019002000FEF75EFE049B013DF5
:10366000013B0493F2E7059B002239002000FEF79E
:1036700067FE27620021236AA58C61815D43039B5D
:103680005D1B404BA5811B689E4258D12A00262015
:10369000FEF76DFC208A039B3E385843A361E36923
:1036A000E1695B08C01808F037FAE38906AD343BDE
:1036B000A7892B803223C719AB800A33EB806F8038
:1036C000FEF7EAFB0023304A009329003000FEF7A2
:1036D00044FD3022A35E9F420CD049DDFA1A3B2AFA
:1036E00000DD3C22EA8029003000284A6B80FEF78A
:1036F00054FD278609B0F0BD421B59008A42B9DD4E
:10370000C31A04935D1B2822A35E9D420BDA2F008F
:103710007A1B39002000FEF7FFFD2822A35E013747
:10372000BB42F5DC2B002822A15E0498CA1A41187E
:10373000C91A2000FEF704FE049B23629AE7144F87
:103740003B689E4203D0134B1B689E42A2D11020BF
:10375000FEF754FB3B68EF22F31A591E8B410240DF
:1037600018011043FEF76CFB2A00002134208FE77C
:10377000DA1B3B2A00DD3C2292B23C33EA809B1AE2
:10378000B1E7C046BC07002058EF000031303100DF
:10379000B4070020AC07002070B5848C056A0B00CC
:1037A00061439D420CDC2826825F52199A4207DD54
:1037B00082698A4204DC038A1B1BC91A8A4201DA25
:1037C000FFF708FF70BD0000D0B51F00134B1600B7
:1037D00054331B7804000022002B0FD0104B300014
:1037E000390009F053FC0F4AA061E1613000390053
:1037F0000D4B09F04BFCA062E162D0BD0B4B3000D9
:10380000390009F043FC0022A062E1623000390077
:10381000074B09F03BFCA061E161EEE7202A0020A4
:103820000000594067B3D96C369B68400088B340AC
:1038300000D8A340F7B504000F000026C38EC58F43
:103840000193019BAB420BD9236B2000595DFFF71D
:10385000F9FD43089B19BB4202DC36180135F0E73D
:103860002800FEBD030010B50A00811C008D3E310A
:1038700008801868002A03D01A69FEF78EFC10BD74
:10388000004AFAE700FFFF00F7B504000E00838F3F
:1038900000938368009D1F889B88DB190193019B1F
:1038A0005B19B34209D8E38F20005A1CE287226BD0
:1038B000D15CFFF7C7FD2D18F1E77B19B3420CD39C
:1038C000002D0AD0E38F226B013B9BB2E3872000DF
:1038D000D15CFFF7B7FD2D1AEFE7009B9D420AD0A0
:1038E000E18F236B2000A58727855918FEF7DDFCA3
:1038F0002000FFF7C6FDA18F2000761A2685002143
:10390000FFF7B0FFF7BDF8B5C68E04008E4200D9B0
:103910000E0000252F006687B54207D0236B2000DC
:10392000595DFFF78FFD01353F18F5E7A3682000CB
:103930001D880121ED19FFF795FF29002000FFF7F1
:10394000A3FFF8BDF8B50025066B0400C563300081
:103950000F000AF093FD3900E0862000FFF76AFFB0
:1039600007000136731E1978002904D02000FFF7E4
:1039700069FD2D18F5E7A36839001B88258720000D
:103980002385FFF7C0FFF8BD10B504000021FFF745
:10399000BAFF01212000FFF765FF10BD70B50400DC
:1039A000058D6D18818F6D180121FFF75BFF2900D0
:1039B0002000FFF769FF70BD0B00F0B5203B04004D
:1039C00085B05E2B3FD8C68E838E0125B34243D986
:1039D000CDB22900FFF736FD238F07001B18238780
:1039E000238D206B0193638F9E421ED9C118F21A5A
:1039F00001330132C0180AF06BFB638F226B200089
:103A0000D554618F236B5918FEF74FFC638FA18F3C
:103A100001336387E38E0133E386019BC918C9191B
:103A20002000FFF731FF002516E0C554226B638F9D
:103A30002000D31800225A70FEF7F7FB290020005F
:103A4000FEF754FAE2E70025AB2905D8A22906D8EB
:103A5000082913D00D290DD0280005B0F0BDA339D9
:103A600008000829DFD808F02FF85DDEDE62DEDE10
:103A7000DE3E4F00FFF788FF0225EDE70025468F69
:103A8000AE42E9D0076B731EFA18F95C0192FFF79A
:103A9000D9FC218DE28E0B1A02936B461B8903938E
:103AA00096421BD2921BB919019801320AF010FB01
:103AB000039B618F2385236B013920005918FEF782
:103AC000F4FB2000FFF7DDFCE38EA18F013BE386D2
:103AD000638F013B6387029BC918A1E7039B238582
:103AE000019B1D70EDE70025638FAB42B4D0013B15
:103AF0009BB2226B6387D15C2000FFF7A3FC41429D
:103B00002000FFF74BFFA7E7638FE28E00259A4264
:103B1000A2D95A1C6287226B2000D15CFFF792FC6D
:103B20000100EDE700212000FFF7EDFE7BE7E18ECD
:103B3000F9E700000E4B020070B50E481C68844285
:103B400014D00D4DAC4211D00C4DAC420ED00C4CEB
:103B500060CB60C40B4B1A6001220B4B19600B4BFE
:103B60001A700023E2321900FFF7FEFB70BDC04659
:103B7000AC070020682B0020402B0020542B002095
:103B8000F426002000270020FC260020F02600203C
:103B900010B581654B1E99410400FFF7F4FC8023AA
:103BA000DB0500212000A3612362FFF713FD10BD98
:103BB000030070B563331B7805001800084101222B
:103BC00004001440104223D1002B1AD0134203D119
:103BD000134102241340E41A2B00002262339A5648
:103BE000A2420CD000221C700A4B1A70EB6D93425B
:103BF00001D00220984700212800FEF79DFC2000FC
:103C000070BD012428000449FFF7C2FF6442E3E7C6
:103C10000C00E1E71C06002084E6000010B50A4C09
:103C200000290BD101222100824063310B78200052
:103C300093430B7062216156FFF7BAFFE36D002BCF
:103C400001D00120984710BDDC2A002010B50400E7
:103C50002200104B10480F3212D15A7B002A0FD08D
:103C60001A7B002A0CD005220C49DA72FFF790FF6C
:103C700002230B4A0B490C48FFF7DCFB200010BD68
:103C80000622DA72E343094A9B009958FFF780FF46
:103C9000F4E7C046682C0020DC2A00201EE9000062
:103CA000E0ED000048F000002C2C00200CEB0000A0
:103CB0000023036043608360C36003610375704742
:103CC00010B504000800FFF75FFE00230749E37208
:103CD0000868984207D0CA888988FFF745FB002208
:103CE000034B1A6010BDFFF76BFBF8E7F4260020CA
:103CF00000270020054B4000C35A054A054893425F
:103D000002D0C022520298187047C04608230020F3
:103D1000FFFF0000DC050020FA23F7B500911A4AE6
:103D20008688040017005B009E422AD2174B9142FE
:103D300002D0C02252028B1800251B8801932F004D
:103D40000135BE4206D93800FFF7D4FF019A038837
:103D50009342F4D9F21B0E4E7B0068009919520071
:103D600080190AF0B5F9009A7B009A5301232000CC
:103D7000A1885B42013189B22381A1801030FFF715
:103D800002FC3800FEBDC046FFFF0000DC0500203D
:103D90000823002070B50D00104EC1880400C580B6
:103DA000B14203D00A001030FFF7FBFBB54214D03C
:103DB0002800FFF79FFF0A4B01881A006C32118020
:103DC000012278331034290020001A802A00FFF7DE
:103DD000E8FB29002000FFF7DFFC70BDFFFF0000BB
:103DE000202A002070B5154D04002B88002B24D00C
:103DF000002200236868A96808F02CF800280DD07C
:103E000000220023E868296908F024F8002805D07A
:103E10006B88002B02D12B7D002B0ED0084920008F
:103E2000FFF77AFF010005002000FFF7B3FF200035
:103E3000A288691C1030FFF7B4FB70BDDC050020C0
:103E4000FFFF0000F8B505000E0000248788A74298
:103E500010D92000FFF74EFF0388B34208D121009C
:103E60002800FFF797FF01235B422B812000F8BD5C
:103E70000134ECE7004CF9E7FFFF000010B5C37A0E
:103E80000400032B02D10A49FFF71AFF094B0A4A23
:103E90000A481A6000231A001900FFF735FA0023B8
:103EA0002000752219001430FFF75EFA10BDC046DD
:103EB000B0040020B02A0020C9320000402C0020AD
:103EC00010B50E4B0122DB8E002B07D00C4CE35CAF
:103ED0002F2B03D05C3B5A425341DAB2002902D166
:103EE000437B934209D003234273002A00D1037B12
:103EF000044A05490548FFF79DFA10BDB0040020AB
:103F00001B060020E0ED000048F000002C2C0020F3
:103F100070B50C4E3000FFF74FFD0B4C0500002133
:103F20002000FFF7CDFF022D0AD131002000FFF75E
:103F3000C7FE637B002B03D000210448FEF7FCFA88
:103F400070BDC046B0040020682C0020DC2A002090
:103F5000002110B50400C1720348FFF719FE0121CA
:103F60002000FFF7ADFF10BDDC2A002070B5C37A3A
:103F700004000D00042B01D9FFF7EAFF03232900F9
:103F8000E3720448FFF7DEFC00210348FFF7D2FD8F
:103F900070BDC046B0040020113F0000002310B5E2
:103FA0001900040075220348FFF7DEF90023E372CD
:103FB00010BDC046E02A0020F8B50F4B62241A005D
:103FC000633217781C570223FA0701D56342634115
:103FD0000A4E0B4D320028000A49FFF72BFA022344
:103FE0001F4202D0013C634263413200280006496F
:103FF000FFF720FAF8BDC046DC2A0020E0EE000002
:104000002C2C002028F0000030F00000010070B5DA
:10401000012825D0022812D0002806D1124CE57ABA
:104020002000042D02D8FFF74BFF70BDFFF790FF73
:10403000052DFAD120000D49FFF798FFF5E70A4C4E
:10404000E37A032B03D120000949FFF739FE094B1E
:1040500062331B785BB2013302D02000FFF778FF98
:10406000FFF7AAFFE1E7C046682C002010270000F8
:10407000B0040020DC2A0020002337B51A00190004
:104080001E48FFF741F9E4201D4A1E4B1E4C1A60E2
:104090001E4BFF3063651E4BA18CE365208207F049
:1040A0003BFD002375221900E0851A48FFF75CF9F3
:1040B0000321194A1368526831331B780192313257
:1040C00012780B40581E83410A4201D0022213434A
:1040D0002200622563321370104B114A20001A60CF
:1040E00065572900FFF764FD854205D1FFF764FF9E
:1040F00000212000FEF720FA37BDC0462C2C0020FE
:104100004D3C0000B02A0020DC2A0020B004002032
:104110000D400000E02A002040F1000014090020BA
:104120001D3C000010B5020002490348FEF7ABF841
:1041300010BDC04688EB00005004002010B50400FC
:10414000631E9C417B20FDF712FF0748074B61422D
:104150000140C918D220FDF714FFC0217620FDF7D9
:104160002FFEFDF77DFE10BD01304100FFCF840022
:10417000094B10B51C0054336B3424781B78A342D0
:1041800005D0944204D1054A054B08F07FFF10BDCD
:10419000044A054BF9E7C046202A00200A8542A1BF
:1041A0005028A43F6666666666663940F8B50F001B
:1041B00019000D4B060054331B781000002B03D060
:1041C00000220A4B08F062FF32003B0004000D00A1
:1041D00007F050FE002801D134003D0029000022E4
:1041E0002000FFF7C5FFF8BD202A00200000244072
:1041F000F7B5274E0400330054331B780D00254FCC
:10420000002B00D1244F01226868A968FFF7B0FF96
:104210000B00216B02000831009154363900200058
:10422000FFF776F933781D4E002B00D11C4EE8685D
:1042300029690122FFF79CFF0B00216B0200183156
:10424000200000913100FFF763F9164E2A883100F3
:104250002000236BFFF746F9236B6A8831002000AA
:104260001033FFF73FF9236B20002033A3602600B3
:10427000FDF7CCFF2000FFF7F9F8002329002C36CA
:104280003778200033701431FEF70FF83770F7BD20
:10429000202A0020AAE80000B0E80000B6E80000EC
:1042A000BCE80000C2E80000F7B5184F0C00BB885E
:1042B0001600051D8B4214DDFB88154F8B4201D182
:1042C000144BFB602000FFF715FD01003800FFF7DD
:1042D0008FFF3100104B114AFB602800FFF792F866
:1042E000F7BD8C2231002800FDF757FFBB889C42A8
:1042F000F6D1002CF4D008223100684609F0DFFE28
:104300006A4601236946D380044AE6E7682C002008
:1043100040050020FFFFFF00D6D3D600542C00201C
:1043200010B50300024A03490348FFF783F810BDA4
:1043300018F0000098F00000402C0020F7B53B4931
:10434000C38804008B4237D002898A422ED0C02312
:1043500000205B02D052364B364A1A8001235B4262
:104360002381FFF7DDFF802223689202934203D26C
:104370001B882E4A934208D0C0256D022B88002B43
:104380001DD02A4A934218D125602B492068FEF798
:10439000A6FF274B274A29491A802368E288581824
:1043A0002749520040335052236005E0244A5B0005
:1043B0009B5A1E4A9342D6D0F7BD4035DEE7EBB29A
:1043C00000930133FF331F4F0193EEB233881E4A2F
:1043D000013B9BB2934224D831003800FEF77FFFA7
:1043E000019B40364037B342F0D10026104F6B0896
:1043F000FB61164B3B80009B0C4A1B8893420AD002
:10440000009B99190F4BF018FEF769FF3B7DDB0706
:10441000FCD5084B3B80802340365B009E42EAD1AE
:10442000B2E701235B423B80DAE7C046FFFF0000B2
:104430000040004104A5FFFFDC0500200080FFFFD5
:104440000823002040110020FDFF000002A5FFFF0F
:1044500010B504490400FFF75FFCE0802000FFF77F
:104460006DFF10BDFFFF000010B5C388054A5B005B
:10447000995A01810121494202209952FFF750FFC8
:1044800010BDC04608230020002313B5040001928C
:1044900000930A00024B0349FDF716FF200016BDEA
:1044A00048F100007C2B0020F8B50E4C0E4D23780F
:1044B000022B08D12B783D2B05D10C4A03CA4900A9
:1044C0004D082900F8BD0A4806F0B6F92A783D2AB9
:1044D00004D106000F00054A1660576002222270C0
:1044E000EDE7C046542100209C000020D02200208F
:1044F0009D000020F7B50400FC224F007F080D004E
:10450000200039001F4B120607F0BEFC1E4E00288B
:1045100007D1200039001D4A1D4B07F0A1FC0028DF
:104520000ED0002200232000290007F093FC194A36
:1045300000281ED030230120337000233354FEBDE9
:10454000002220003900144B07F0A8FC134A002871
:104550000FD12B0022000B21009201933000104A52
:1045600006F09AF903001800013BF25C302AFAD0F9
:10457000E3E720002900009001910B21300006F0B4
:104580008BF9DCE783D7974155210020F168E38858
:10459000B5F8E43EC6E800000000F03FCBE80000BC
:1045A000D0E80000F8B50022002304000D0007F059
:1045B00051FC002821D129002000FFF79BFF0F4963
:1045C0000F4E0B78421C30002D2B02D020230D48BB
:1045D000337009F074FD0C4F3800FEF747FF3100CF
:1045E0003800FEF7BBFF094B1B783D2B02D1084B6F
:1045F0001C605D600222074B1A70F8BD5521002037
:104600009D0000209E000020C02100209C00002072
:10461000D022002054210020F0B58BB00790B14B80
:10462000C088B14E984202D0FFF764FB0600AF4F3E
:1046300031003800FFF7DCFD3100AD48FFF7D8FD51
:10464000AC4B1A00186E596E6B32543312781B78CB
:10465000934206D0002A00D132E1A74AA74B08F0C6
:1046600015FDA74B0200009338000B00A549FEF78B
:104670004FFFA04CA44D230054331B78002B00D1D6
:10468000A24DA06DE16D0122FFF772FD0B00A04964
:104690000200009195482900FEF73AFFB368776859
:1046A0000293002200233800029907F0D3FB002870
:1046B00039D1236E00220493656E002329000498EB
:1046C00007F0C8FB002800D0FFE0924A924B290077
:1046D000049808F0DBFC029B3A0008F0D5F8029041
:1046E00003916B3423780024002B00D0EBE08B4D3A
:1046F000804B6833188809F04DFB22002B0007001F
:1047000004910298039908F0C1FC049B05000293F0
:104710000C0002000B003800029907F0ABFB0028E8
:1047200001D12F0002940299380007F053FC7C4D10
:104730006E4C0200290020007A4BFEF7D3FE6D4B31
:104740000122986DD96DFFF713FD049005917088D3
:1047500009F0F0FA049A059B089009913800029933
:1047600008F094FC02000B000898099908F08EFCF0
:1047700007F030FC6C4B020029002000FEF7B2FE6F
:104780000F2250216948FDF70BFC0F227720110002
:10479000FDF7EDFB079B01249B7A02251F002740B4
:1047A00019213800624A0293FFF7C8FC029BAF212F
:1047B0001D402800431E98415D4AC0B2FFF7BEFC71
:1047C0000423029A64211A4010000792431E984164
:1047D000F522C0B25200FFF7B1FC0823029A64210F
:1047E0001A4010000892431E98419122C0B29200D4
:1047F000FFF7A4FC00224F4BB168706808F046FC3C
:104800002200FFF7B5FC0C000490002F04D1002D0E
:104810005ED080231B06C918474F02000B003800EA
:10482000FEF7D2FF334D2B006A331B78002B02D0EA
:1048300080231B06E418089B002B4CD080231B060A
:10484000E4182300049A3D48FEF7BEFF0122F068F9
:104850003169FFF78DFC2B006A331B78002B02D0E7
:1048600080231B06C9182B0057331B78002B01D15E
:1048700018001900002402000B0031485635FEF7DD
:10488000A3FF2B78A34209D0002200237068B168EF
:1048900007F0E0FAA04201D1C6242404029A0023C2
:1048A000920700D02300BB630C23029A1A40130026
:1048B0005A1E93415B421C40204B9C630BB0F0BDE1
:1048C000204A214BCBE6214D12E7049F02952AE7AF
:1048D00028002900A0E7079B002BB2D11C000493FD
:1048E000AFE7C046FFFF0000DC050020A805002060
:1048F00074050020202A002091F2A3FC283F0A40E2
:10490000C0EE0000C5EB0000BCE80000D5E80000E8
:10491000C8EE000083C8C96D305FD43F0000284056
:10492000DBE80000D0EE0000D8EE00007C2B002079
:10493000170200000000E03F082D0020942D002009
:10494000202E0020FC87F4DBD781D33F00408F402E
:1049500070B50D4D2800FFF72FF802280ED10B4C33
:104960000B4BE18899420AD12000FFF73BFA200067
:10497000FFF752FE29002000FFF7A2F970BD0A00E0
:104980000448FEF70EFEF2E7F8040020682C002031
:10499000FFFF0000782C002070B50D00054C2000B2
:1049A000FFF7CCFC29002000FFF7F4F92000FFF707
:1049B00033FE70BD682C002070B5002901D1C021E4
:1049C0004902802292020B004C1CFF341D68013505
:1049D00006D0084A4B08D361074B1380080070BD0E
:1049E0000433A342F2D119009342ECD3FFF730FD18
:1049F0000021F3E70040004102A5FFFF13B50022AC
:104A00000800019101A909F0E9FD019B284C2080D3
:104A1000581C01901B782C2B02D00220404216BD5E
:104A200001A905F075FF019B6060581CA160019011
:104A30001B782C2BF1D101A905F06AFF019BE060E6
:104A4000581C216101901B782C2BE6D1002201A972
:104A500009F0C4FD019A6080511C019113782C2B40
:104A6000DBD153781348222B1DD10023023201924F
:104A7000019A511C01911178222910D151782229D3
:104A800009D102320192C15401332A2BF0D1002006
:104A90003F342070C3E70022C3181A70F7E7C154EF
:104AA0000029F1D1F3E72B2209F0EFFCEFE7C04634
:104AB000DC050020F0050020F8B51A4F0A000600BA
:104AC0000D0038000D2109F0E1FA041E03D1012583
:104AD0006D422800F8BDC21B272AF8D138001249C0
:104AE00009F0DFFA071EF2D10134283D2A000D211A
:104AF000200009F0CBFA0028E9D007700130001B34
:104B00002D1A21003000FFF779FF0028DFDB074B6B
:104B10001A00543212786B331A70C0235B02336070
:104B2000B780D6E7401100208FE90000202A00203E
:104B3000F0B585B006000D0014000393002B27D0BC
:104B4000224F1A000D21380009F0A0FA002839D0B0
:104B500000230370C01B431C0193EB1A22002900A1
:104B60001800029309F0B4FA029B3900019A18194F
:104B700009F0A5FA30000299FFF740FF00281FDB7B
:104B80003000FFF765FC019B019ADD19039B9C1A1D
:104B900022000D21280009F079FA00280FD0002307
:104BA000471B0370290030000137FFF727FF00285B
:104BB00006DB3000FFF74CFCED19E41BE8E72000B2
:104BC00005B0F0BD01204042FAE7C0464011002088
:104BD00070B504008B1C08D04B1C0CD10623164961
:104BE000C3721648FEF7D4FF70BD06231449C37282
:104BF0001248FEF7CDFF134D01222B0078331A80A7
:104C000080232000DB05A362236300211030FEF720
:104C1000E1FC0D48FFF74CF801235B42E3806C3563
:104C200029882000FFF70EF92000FFF7F5FC20008F
:104C3000FFF724F9D8E7C04671E90000DC2A00201C
:104C40004AE90000202A0020DC05002010B52922B6
:104C50000249034809F033FA024810BD8FE9000009
:104C60004011002069110020F0B583880D0000205C
:104C700087B0934229D91000FFF73CF804000122C5
:104C80006068A168FFF774FA012206000F00E0686F
:104C90002169FFF76DFA63882288029003910096DC
:104CA000019728001149049305F018FE22262D18BB
:104CB00014343100200009F0D3FB002807D1220072
:104CC00028000B4905F00AFE281807B0F0BD0023A4
:104CD000001B421CE15CE954190001338842F9D100
:104CE000A4180230AA1816702D18E2E7DFE80000B9
:104CF000F1E8000010B500210148FDF71DFC10BDD2
:104D0000DC2A00200068C003C00E0C2801D90C3832
:104D100070470028FCD10C30FAE70000F0B587B0EE
:104D200004900591037B002B00D187E01626444CAC
:104D300005AD2000FDF76AFA2800FFF7E3FF17270B
:104D400029786E448906890E337832880391298840
:104D50006F440905890E0190029139783948890814
:104D600009189B069205DB0E120F009120003649B0
:104D7000FDF789FA230000222C331A70059B334972
:104D8000DB03DB0E0B2B00D831492000FEF7E6FBDE
:104D900020003021FEF756FB2C34049B2070DB7A78
:104DA000042B4BD12B4C2C4B2000A360FDF72EFA8B
:104DB00030888005000FFFF7B5F9284B2000A3606D
:104DC000FDF724FA30788006C00EFFF7ABF9244BCC
:104DD0002000A360FDF71AFA387880081430FFF736
:104DE000A1F9204B2000A360FDF710FA2800FFF77F
:104DF00089FFFFF797F91C4B2000A360FDF706FA27
:104E000028880005800EFFF78DF9184B2000A3605D
:104E1000FDF7FCF928788006800EFFF783F9144B24
:104E20002000A360FDF7F2F9059B1249DB03DB0EBE
:104E30000B2B00D810492000FDF737FA07B0F0BD62
:104E400080040020E4070000FFE80000F7E800000D
:104E5000FBE800005004002058ED000060ED000069
:104E600068ED000070ED000078ED000080ED0000BE
:104E700088ED0000F8E80000FCE80000F0B585B01F
:104E80000392C67A04000D00012E40D1072909D0F3
:104E9000092900D08FE00020BF4BE0721870FFF7A7
:104EA0003FFA88E0C5882800FEF724FFBB4B2E00A0
:104EB000984226D1FEF7FCFEA288B94B013A92B285
:104EC0006800A280811C521BC918C018520009F04A
:104ED000FFF8A388AB4204D86E1E31002000FEF715
:104EE00059FF250010352800A188FEF74CFBA28849
:104EF000280031000132FEF754FB2000FFF78CFB45
:104F0000C9E70023A74A0380A74B1A80D4E70029EA
:104F100053D1FFF7C9FA0022A44B06000F0006F098
:104F2000A9FF002801D10026A04F3900300007F06A
:104F300051F805002000FFF701FA29002000FEF7D4
:104F400081FF9B4A030090421DD19A499A4A096801
:104F5000914223D1E088914E984218D0002D16D16D
:104F60008F4A41008A5A9A4205D0FEF7C3FE0100DB
:104F70003000FEF7B4F920008D493580FEF70AFFB6
:104F80002000FEF72FFF2000FFF746FB13E03388D9
:104F9000002BF0D03000FEF78BFEECE7874C884BFF
:104FA0002000A360FDF732F92000FEF75FFA200031
:104FB0008449FEF7D3FA05B0F0BD062900D925E1F2
:104FC000814B1B78002B14D1042912D0C088784A59
:104FD000724B904202D0FEF78DFE0300681E05283A
:104FE000E9D806F085FDB500AF00BB00E8FFC400BE
:104FF000BF00FFF759FA07000E00042D16D8E0880D
:105000006B49884212D0664B4200D35A8B420DD076
:10501000FEF770FE01006148FEF761F9654A664BD4
:1050200012689A420AD12000FFF71EFAA81E04282F
:1050300027D806F053FD0B303A6154000023574A3D
:1050400020005B491380FEF7A5FEEFE70022380041
:1050500031005E4B06F00EFF002801D100275B4EA9
:105060003800310008F030FE4C4B5880E188504B3E
:10507000994200D184E720000A001030FEF791FA2F
:1050800081E7534B38003100524AFFF78FF8434B0A
:1050900058609960EAE7504B380031004F4AFFF7FB
:1050A00085F83E4BD8601961E0E74D4B4D4D198CAA
:1050B000039B591AE37A022B09D002232800E372DA
:1050C000FEF740FC00214848FEF734FD73E7280056
:1050D000FEF7B0FB01002800FEF715FC6BE7434A22
:1050E000434B38003100FFF761F80122414B9865CE
:1050F000D96578331A80B9E70022380031003E4B79
:1051000006F0B8FE002801D107003B4E394D2B00B8
:105110002A006B3354321B7812789A4209D0002B44
:105120000DD1364A364B3800310007F0AFFF07008B
:105130000E0001232F666E6678352B8096E7314A84
:10514000314BF0E7588808F025FEFFF72BFA32E7DD
:10515000012258689968FFF70BF8F6E70122D86832
:105160001969F8E7234B0122986DD96DF3E7214BBC
:105170001A00186E596E6B32543312781B789342B2
:10518000E3D0002A04D01D4A1D4B07F07FFFDCE767
:105190001C4A1D4BF9E7C04605270020DC0500200E
:1051A0000823002004A5FFFF0040004100388F4085
:1051B000FFFF0000B4070020402C0020A8050020BD
:1051C00088EE00001AE900005421002000C0584079
:1051D0007CFF2340736891EDEFFF58400E2DB29D88
:1051E00070F00000F8040020514900001EA7E848B4
:1051F0002EFFEF3F202A00208087C34091F2A3FCBE
:10520000283F0A40FC87F4DBD781D33FC81F0D2815
:1052100000D9D0E606F076FC0E00250053006000B1
:10522000C600FC007E00B8003001390107011401FE
:105230001C0127012000FFF781F8E37A022B03D13C
:1052400020009B49FEF73CFD1020FCF7D7FD802392
:105250009843FCF7F5FD0022964B1A60FEF7B0F874
:10526000A9E6E388944A934203D19448FEF720FDCF
:1052700089E6934D5B005B5B93421ED122899A4283
:105280001BD08E48FEF714FDE38822895B005A5339
:1052900001232000E1885B4223810A001030FEF7E1
:1052A00080F90020FFF73CF8E37A022B00D06AE691
:1052B00020007F49FEF704FD65E60120ECE52000B3
:1052C000FFF73CF8E37A022B03D120007849FEF780
:1052D000F7FCFEF7D1FE6EE6E088774B98420DD0E2
:1052E000774A41008A5A9A4208D0FEF703FD01002E
:1052F0007248FDF7F4FF2000FFF7B6F800256C4E6A
:10530000336B30001D70FEF7B1F802232900300026
:10531000E372D5E60027042E00D94CE60123694E3E
:10532000694D3200280069497B402773FEF782F8F7
:105330003B00320028006649FEF77CF8637B002BB7
:1053400005D13B002800634A6349FEF773F8FF224A
:10535000624E002F1AD0310000262800FCF71DFFF6
:10536000330028005E4A5F490096FCF7F6FE3300E2
:1053700028005D4A5D490096FCF7EFFE5C4B20007B
:105380001969FFF7CBFC16E60127C4E72800574947
:10539000FCF703FF3B0031002800564A0097FCF75A
:1053A000DCFE08E6032E0AD120005349FEF788FCF4
:1053B000627B524B002A0FD00021180009E0042E16
:1053C000F6D92000FEF7C4FD052E00D0F3E501213B
:1053D0004A48FDF7B1F8EEE5622159560123227BD8
:1053E0004748484C49425B42002A08D00922FCF752
:1053F000E1FB0B23002808DA23689847DBE5082245
:10540000FCF7D8FB06230028F6DB23756075D2E590
:10541000042E04D93C492000FEF7A8FDCBE520006E
:10542000FEF72CFDC7E5394B1988039B591A032E4B
:10543000F1D1314C2000FEF7FDF9010020004BE6D0
:1054400000252D48036B1D70FEF710F82900E2E7D8
:105450002A480021030063331B78DB0700D4AAE548
:10546000FEF7A6FBA7E52548030063331B789B07DF
:1054700000D4A0E50121F3E7052E00D19BE5237BB5
:10548000002B00D197E5042E03D12000FEF786FD06
:1054900091E5032E03D120001749FEF711FC0023EC
:1054A000752219001A48FDF75FFF0423E37265E7D0
:1054B000F8040020B4070020FFFF0000DC050020F6
:1054C00008230020E0EE00002C2C002038F0000023
:1054D00040F00000E0ED000048F0000068F000003F
:1054E00010F0000050F0000008F0000060F0000034
:1054F00000140040C8ED0000B0040020DC2A0020A9
:105500001C060020B02A00201027000020F0000018
:105510009C2A002037B50500062812D0FEF7C4FFEC
:1055200006F058FD0300052D09D1454A904201D8E7
:10553000133A8318434A9A183F2A02D937BD3B28A9
:10554000FCD8414C22690192062D0ED8280006F0A5
:10555000C5FA04141E3A444E57003F210B40180070
:1055600001AA13788B4303431370019B2361A37A31
:10557000DB09FCD1354B6380E0E73F2001AA1840EE
:105580003349138880010B4003431380EDE7019AF0
:105590001F20D5032F49ED0E0B2D0BD91D00054003
:1055A0000B2B02D80C331D0005402D030A40154378
:1055B0000195DAE70C2B00D10023184000030A40C4
:1055C00002430192D1E76A461F203E211840937999
:1055D00040008B4303439371C7E76A460F201E497F
:1055E0001840D38880010B400343D380BDE76A464F
:1055F0000321D0791C339B0008400343D371B4E7E7
:1056000001A8FFF77FFB019B1F25D903114AC90E93
:105610000B290BD8010029400B2802D801000C31BE
:10562000294009031340194301919EE70C2800D13A
:1056300000202840000313401843019095E7C0461E
:10564000E30700001CF8FFFF0014004010C0FFFF3C
:105650003FF0FFFFFF0FFEFF3FFCFFFFDC4A01238F
:105660001168F0B5080085B01840194209D11360DF
:10567000D84B00900193D84AD84BD949D948FCF768
:1056800023FE0125D84B1A682A420DD11D60D74B45
:10569000D74C0193D74B20000093D74AD74BD04922
:1056A0002D34FCF711FE25700122D54B19681142EB
:1056B0000AD11A608C230193D24BD34A0093D34969
:1056C000CE4BD348FCF782FD0124D24B1A6822420C
:1056D00000D11C60D04B1A681100214022420FD12A
:1056E000CE4D1C60CE4ECF4B009101933200C34B88
:1056F0002800BB49FCF7E8FD2B002D331C702E63FE
:105700000125C94B1A682A4210D11D60FF23C74CDE
:10571000C74E0193B54B320000932000B74BC549EB
:10572000FCF7D2FD23002D331D7026630125C24BEB
:105730001A682A4210D11D608C23C04CC04E0193C0
:10574000B04B320000932000AC4BBE49FCF7BCFDCF
:1057500023002D331D702663BB4B01251A681600EC
:105760002E402A421AD11D60FF23B84C01939F4B53
:105770002000B74AAF490093A04BFCF727FDB54B7B
:10578000221D23632B23A386A31CDE87A84B598CE1
:10579000DB8CD187A21D0834D587E387AE4B01256A
:1057A0001A681100294003912A421AD1FF27AB4CF5
:1057B000AB4E1D608D4B320020000093A9498F4BEA
:1057C0000197FCF703FDA84B039A2363A31CDA8718
:1057D0007288231DDA87A31DDD87F388A786083426
:1057E000E3870122A14B196811420AD11A60FF23F5
:1057F00001937E4B9E4A00939A49804B9D48FCF74B
:1058000063FD9D4A0123116808001840194209D11F
:105810001360764B00900193984A994B99499A48A6
:10582000FCF7D4FC0125994B1A682A420DD11D6062
:10583000974B984C01936D4B20000093964A904BE8
:1058400067492D34FCF740FD257094490123086811
:1058500002001A4018420BD10B608021904BC90006
:1058600059608021C90499608E491A60D9601A6113
:105870008D4B01251A681100294003912A421AD143
:10588000FF278A4C8A4E1D60584B3200200000933F
:1058900088495A4B0197FCF799FC734B039A236391
:1058A000A31CDA877288231DDA87A31DDD87F3889E
:1058B000A7860834E38701227F4B196811420AD179
:1058C0001A60FF230193494B7C4A009379494B4B63
:1058D0007B48FCF77BFC01227A4B1968114211D1FD
:1058E0001A60794B734A72491A60FF2212029A6059
:1058F0003E4AC88FDA60754A5A608A8F8242924166
:1059000052421A750122724B1968114214D11A6061
:105910007049714A7148FEF7B7FD714A7149724882
:10592000FEF7B2FD6C4A71497148FEF7ADFD6C4A55
:1059300070497148FEF7A8FD704A012311680800FC
:105940001840194209D11360284B009001936C4A0A
:105950006C4B23496C48FCF7B7FC6C4A0123116877
:105960000D001D4019421DD1694C136020001C4BD5
:10597000684E2360214B102263601C4B2900236179
:10598000A660E560183008F0B6FB0222624BE461C5
:105990006361631DDA773388A58523850E4B6A33EF
:1059A0001B8863855D4B01251A68110029402A4236
:1059B00000D0BBE01D605A4C0C4B200001910093BD
:1059C000584A2F4B58492D34FCF77EFC2570ADE02A
:1059D0007401002000FFFF00E8ED000028F2000045
:1059E0007C2B00207C07002070010020FFFFFF00BF
:1059F0004C0700208482840000EE000048F1000083
:105A00006C010020D6D3D600B8ED0000C82A0020D3
:105A10001C0700206801002064010020A805002068
:105A200088EE0000FFFFC600600100207405002022
:105A300070F00000402C00205C0100204005002098
:105A4000A0F00000542C002058010020F804002091
:105A500090F00000F005002054010020B004002068
:105A600020F000002C2C00201C06002050010020FB
:105A700058F00000800400204C01002058ED000088
:105A800050F200009C2A0020500400204801002011
:105A90004A4D290020040020B0EE000050210020D3
:105AA000D82200205802010044010020C003002039
:105AB000D0F00000F42C002040010020F0F00000A5
:105AC000900300203C0100207803002008F1000032
:105AD0004C21002068EE0000EFEBFF00F0210020D9
